:020000040800F2
:1000000000020020A504000841040008FD030008C8
:100010005104000861040008710400080000000099
:10002000000000000000000000000000E1030008E4
:100030008104000800000000C503000891040008C6
:1000400031010008310100083101000831010008C8
:1000500031010008310100088911000889110008E8
:100060008911000889110008891100083101000870
:100070003101000831010008310100083101000898
:100080003101000831010008310100083101000888
:100090003101000831010008310100088911000810
:1000A0003101000831010008310100083101000868
:1000B000FD15000803160008310100083101000891
:1000C0003101000831010008310100083101000848
:1000D00031010008790800087F0800083101000894
:1000E00089110008310100083101000831010008C0
:1000F0003101000831010008310100083101000818
:100100003101000831010008310100083101000807
:1001100031010008310100083101000831010008F7
:1001200031010008310100083101000831010008E7
:1001300000F0AEB900F0BEBA7047000070B50C46D2
:10014000064600F0A7FA094B094A1D682919914291
:1001500002D8084A914204D20C2333604FF0FF3595
:1001600000E0196000F09EFA284670BD00020020F1
:1001700000000120684900201046194600F0A6BA88
:100180001046194600F0AABA132303604FF0FF305F
:100190007047132303604FF0FF3070471323036051
:1001A0004FF0FF30704702294FF0000303608CBF0F
:1001B0000020012070470000134B002010B518608C
:1001C000124B134A1C68116894FAA4F3B3FA83F330
:1001D0008442104C08BF4FF0FF3354F823301B68A3
:1001E000A3F10C04A1420ED021B108790A2804BF62
:1001F0000B2008710A2103F8081C33F8061C064B73
:1002000014601980012010BDA0020020740300209A
:100210002C0300203003002028030020092930B5DA
:10022000037919D9092B32D842791A4B00F10C0401
:1002300053F822502DB12D68C56053F822502C6020
:1002400000E0C46043F822404279134C012303FAD2
:1002500002F22368134319E0092B18D945790D4B95
:1002600053F825203AB11468A24213BF2468002233
:1002700043F825201460427953F822303BB9064CEC
:10028000012303FA02F2236823EA020323600171C7
:1002900030BD00BF300300207403002008B50A4BB6
:1002A0001B685A791B79092B01D982420AD900F0BF
:1002B000FCF918B1054B01221A6008BDBDE80840E1
:1002C00000F078B808BD00BF2C030020A002002079
:1002D00008B500F0DFF9094B094A1B8800241BB25E
:1002E00042F82340074A084D13682868013B21461D
:1002F0001360FFF793FF2C6000F058F828030020EC
:10030000A4020020700300202C030020134423F0DB
:10031000030310B54FF077321C1F43F8042C62071B
:1003200042BFA3F108044FF0883243F8082C22465C
:100330004FF0807304E909000E4B44F80C3C002395
:1003400044F8103C032344F8143C022344F8183CBE
:10035000012344F81C3C42F8201D0B2342F8043DC5
:10036000013B032BFAD120466FF0020340F8443DD5
:1003700010BD00BFD1020008054B1968054A0648A8
:10038000914203D1834201D20433F6E7C01A704789
:1003900000000020FEE7FEE700020020EFF30880E7
:1003A00070470000004870470000002000F076F918
:1003B00001DFFEE7024A536843F080535360704701
:1003C00000ED00E0EFF3098020E9F00F40F804EDC4
:1003D00002490968086000F003F800002C030020BF
:1003E000FFF7EAFE04480068016801C9B1E8F00FB0
:1003F00081F30988004700002C0300200D490E4AB4
:100400000E4B6846904203D8984201D9002102E081
:1004100009468D46012104207246024202D1EFF3C3
:10042000088001E0EFF309802DE9F00F6B4600F042
:100430006FF800BF000200200000012058010020DA
:1004400008B50420014900F097FC00BF9CE20008B9
:1004500008B50620014900F08FFC00BFA8E20008A3
:1004600008B50720014900F087FC00BFBBE2000887
:1004700008B50820014900F07FFC00BFCDE200086C
:1004800008B50920014900F077FC00BFE1E200084F
:1004900008B50A20014900F06FFC00BFF3E2000834
:1004A0007047704708B5FFF7FBFF6A46114B934250
:1004B00003D2114943F8041BF9E7104A104B1149C4
:1004C0008B4204D252F8041F43F8041BF7E70E4B8B
:1004D0000E4A934203D2002243F8042BF8E7FFF7B9
:1004E000E0FF00F023FC0CF037FFBDE8084000F00F
:1004F0007DBC00BF00000020FEE7FEE7C00A010847
:1005000000020020A0020020A00200206849002074
:100510002DE9F04F9946494B92469A6B8FB0039262
:100520005A6B9F6A0492DA6A044605921A6BDB6B77
:1005300006920793424B88461A68424B9A4202D071
:1005400041480DF07DF8B8F1000F05D03F48002577
:100550000DF076F82E4626E0E068D4F81CB008903E
:1005600020691BF4007F0990606994E80E000A90EE
:100570003748A6690CBF04F1200504F124050D934A
:100580000C920B910DF05CF8089B0BA900930EC91F
:1005900030480CF0C5FFCDF800B02F4809990A9AF1
:1005A00033460CF0BDFF2D480DF04AF839462C4873
:1005B0000CF0B6FF05992B480CF0B2FF06992A48BB
:1005C0000CF0AEFF294807990CF0AAFF3A0403D5B6
:1005D000274803990CF0A4FF3B0603D5254804994E
:1005E0000CF09EFF24480DF02BF8244851460CF0E7
:1005F00097FFB8F1000F1BD121480DF021F83146CB
:1006000020480CF08DFF69461F4BC91A03D51F48BF
:1006100049420CF085FF20468268C36801698C4618
:1006200041698E46AD46494691E8F00F4168006841
:1006300001BE0520164900F09FFB00BF00ED00E061
:1006400000000020FEE7FEE701E3000817E30008D2
:1006500046E3000861E300089EE30008DCE30008CD
:10066000E5E30008F5E3000805E4000815E40008E8
:1006700025E4000835E4000845E400084AE40008E1
:100680005CE400088DE4000858010020B5E400088F
:10069000E2E40008EFF3108072B6704762B6EFF341
:1006A0001080704780F310887047EFF30580C0B268
:1006B0007047000000200249024A034B00F07CB85A
:1006C00020A10700AD0F00080402002003460A46DF
:1006D0000148194600F075BC04020020034610B51D
:1006E0000C4600201946224600F026F8204610BD90
:1006F000142343430D4A70B5D4582568AA0609D57A
:100700000C2358430A4A66681318197A1258314064
:10071000586890472B0748BF6368064B1B681BB19E
:10072000BDE87040FFF746BE70BD00BFF8E40008AA
:10073000B8030020A0020020012810B503D903202F
:100740000B4900F019FB142358430A4B1B58D86877
:1007500000070CD50A44914206D011F8010B1C6821
:100760002406FCD55860F6E71A685206FCD510BD81
:1007700020E50008F8E40008012810B5044603D974
:1007800003200A4900F0F8FA0C234343084AD358DF
:1007900013B1012000F03AFD064B142202FB043491
:1007A000207C6168BDE8104000F056BE20E50008DE
:1007B000B8030020F8E4000801282DE9F8430646B4
:1007C0000D46174603D90320274900F0D5FA274CD8
:1007D0000C224FF01408724308FB06482448D8F84E
:1007E0000C9081184B60FF2387500B724846032101
:1007F00000F0F8FB484600F04AFC48460B2100F0A8
:1008000024FC27B1D8F80800042100F0EBFB3046A7
:10081000FFF7B2FF14235E43A219A4590023E3603B
:10082000107C2361636102F1100600F0F9FDB0FB5A
:10083000F5F080B2A06087B1727853B2002BA1BFEF
:10084000012102F01F0201FA02F20A49A4BF5B096A
:1008500041F8232042F22C0301E042F20803E36056
:100860000020BDE8F88300BF20E50008F8E4000898
:10087000B803002000E100E00020FFF739BF0120AD
:10088000FFF736BF10B558B1012815D1174B1A68BC
:1008900022F00F021A601A6842F001021A601DE08D
:1008A000124B1A6822F00F021A601A6842F00E0208
:1008B0001A605A685A6011E00D4A0024136923F047
:1008C00004031361FFF7E6FEBFF34F8F30BFFFF75E
:1008D000E9FE54B1BDE8104000F034BD044A0124E3
:1008E000136943F004031361ECE710BD007000408E
:1008F00000ED00E008B5FFF7CDFEBDE808400020A0
:10090000FFF7C0BF002000F021BE000038B5044C46
:100910002568FFF7F7FF2368AB42F8D1184338BDCD
:10092000D8030020044B0246186818B9014692B259
:1009300000F0EEBD704700BFD403002010B5094A97
:1009400013685BB19C6881688C4202D21A461B68AE
:10095000F7E703D15C6841688C42F7D90360106007
:1009600010BD00BFE4030020254BF0B51A689C467B
:1009700002F580321A601A681AB9224B1A680132DD
:100980001A60214B214C00201A6818602368204D02
:1009900019462A6021B11B4F8E683F68BE4202D9BA
:1009A000216050B9F0BDDCF80070B1F806E0B7EB9B
:1009B0000E4FF5D108460968ECE700210160E2B16D
:1009C00033B151685868814294BF1146194600E01E
:1009D0001146084612681B680AB903600BE00BB9A0
:1009E000026008E054685E68B44294BF14461C4636
:1009F00004602046EEE72960F0BD2B60F0BD00BF2B
:100A0000D8030020DC030020D0030020E4030020F2
:100A1000E0030020F8B5334F334C01233B602368DB
:100A200043B9FFF7A1FFFFF76DFF4FF6FF73984241
:100A3000F9D041E0FFF766FF054611E0B6B2864205
:100A400005D923685E68FFF75DFFA842F6D22368E8
:100A50001A681869226000225A609A60DA68904722
:100A600023683BB9FFF74EFF1430A84213D2FFF7BB
:100A70007BFF0BE05E68FFF745FFA842E1D3B3B20E
:100A80008342DED91B1A132BECD8DAE7FFF73AFFC3
:100A90008542FBD310E023683BB15E68FFF736FF69
:100AA000063E14308642DBD314E0FFF72BFFA8424A
:100AB000064603D2FFF758FF0025D1E700F11403E3
:100AC0009BB2834204D2FFF71DFFB042FBD2F1E795
:100AD0004FF6FF7600233B603046BDE8F840FFF755
:100AE00021BF00BFD4030020E0030020144B1A688C
:100AF00082420AD112681A6012B15068063801E0C9
:100B00004FF6FF70FFF70EBF13461A6822B18242FC
:100B1000FAD102681A6070470A4A13681BB183420F
:100B200003D01A46F9E7084A05E0036813607047E6
:100B30008342FAD01A461368002BF9D1704700BFE0
:100B4000E0030020D0030020E403002008B50020CB
:100B500003460549054A00F00BFDBDE808404FF08B
:100B6000FF30FFF7DFBE00BF40420F00150A00084C
:100B700038B5FFF7CBFE074B05461C68FFF7C6FEEE
:100B80008542F6D823460022141843F1000520467A
:100B9000294638BDDC030020F8B504460D46FFF7B2
:100BA000B5FE002323602B1A1E2B06460CD8ADB2CF
:100BB000FFF7A8FEA842FBD8FFF7A4FEA842FBD38C
:100BC000E3682069984745E0FFF764FD63680746DE
:100BD000002B3BD1A368002B38D11F4BA81F1A68EC
:100BE000B04238BF0132A2601B68A26865609A42B9
:100BF00005D81A4B1A68030C1B04934203D02046F5
:100C0000FFF79CFE1EE0B6B2864202D2144B194694
:100C10000EE0144A136823B15968A94201D81A4654
:100C2000F8E7236014600DE05668AE4203D813461F
:100C30001A68002AF8D122601C600B68A34201D117
:100C4000FFF770FE3846FFF72DFD03E02046FFF763
:100C50004DFFC2E70020F8BDDC030020D8030020D0
:100C6000E0030020D003002038B50446FFF712FD52
:100C70006368054633B9A36823B92846BDE8384000
:100C8000FFF710BD2046FFF731FFF6E7C36870B5E8
:100C900005460C46CBB1FFF7E7FF1D2C0DD8FFF73B
:100CA00031FE0646FFF72EFE801B80B2A042F9D32C
:100CB000EB682869BDE870401847FFF727FE011967
:100CC0002846BDE87040FFF767BF70BD2DE9F843C7
:100CD00004460E4690461AB9BDE8F843FFF7D6BF62
:100CE000FFF7D8FC63680746D3B9A368C3B9FFF719
:100CF0000DFE0D4B81461D68FFF708FE8145F6D8B5
:100D00003044A560B042454438BF01356060A560FD
:100D10002046FFF713FE3846BDE8F843FFF7C2BC94
:100D20002046FFF7E3FEE2E7DC03002070B50E4E3D
:100D30000E4D00F067FB0E4C3046032100F052F9D7
:100D40002846032100F04EF90321204600F04AF91D
:100D5000304600F09CF9284600F099F92046BDE89D
:100D6000704000F094B900BF02140140050C01402E
:100D70000A1001407047000008B50F4B0C461A6876
:100D80009AB9012203281A6003D171460B480CF06E
:100D9000C7FB21460A480CF0C3FB00F067FA09487C
:100DA0000CF0BEFB08480CF0BBFBFFF773FCFFF731
:100DB000E1FFFFF79FFD00BFE803002032E50008D8
:100DC00036E50008F5ED000852E5000808B500F02A
:100DD00033FE03480CF0A4FB00F0F6FD002008BD34
:100DE00060E5000808B500F0F3F9FCE71FB5FFF770
:100DF00051FC0E4B002400930D4B01941B684FF4E3
:100E0000807102930F220C230A4800F055F80A4B18
:100E10004FF4C0618DE81800084B07221B68084892
:100E200002930C2300F048F8FFF7C0FAE50D000824
:100E300018020020EC030020CD0D00081C02002049
:100E4000EC04002008B5FFF725FC094B1B681A7954
:100E5000092A07D95A79074B53F8221011B10968AA
:100E600043F82210FFF71EFCBDE80840FFF7A2BAC6
:100E70002C0300203003002038B50B79092B03D94F
:100E800003200849FFF778FF4C7901F10C02036851
:100E90002BB113F8075CA54201D81846F7E7CB60E1
:100EA000026038BD20E50008031F53F8042F9A4262
:100EB000FBD0181A704700000F2A2DE9F74F814622
:100EC000884616461F4666D810F003050FBF0D462C
:100ED000C5F10405A9444D1B343D25F0030C190749
:100EE00009EB0C0405D54B46A34204D21B60043326
:100EF000FAE7C9F80090CDF804C0FFF7CBFB8346B2
:100F0000DDF804C00123274A1FFA83FA52F8235060
:100F100035BB42F823400C984A466346A4F806A025
:100F20000D99FFF7F3F90E9B1F4AE3624FF0FF3371
:100F300023621368206001331360FA07C4F8289015
:100F4000C4F8308066712571E56025616561A56131
:100F5000E56165620DD520460121FFF75FF915E0D7
:100F60000133212BCFD15846FFF79CFB4FF675700C
:100F700013E020460B21FFF751F97B0706D45846B2
:100F8000FFF790FB3046FFF789F902E05846FFF77C
:100F900089FB504601E04FF6EA7000B203B0BDE8AD
:100FA000F08F00BFA40200207003002038B5054672
:100FB00000F046FB044605F1100000F099FD2046C4
:100FC00038BD70B504460E461546204631462A46C1
:100FD00000F023FB28B904F11000012100F058FDB6
:100FE000F3E770BDFF29F8B504460F4620F00F0562
:100FF00000F00F0626D0C0F38323023B0421994062
:10100000012000F029FA04F00704F31055F823102A
:10101000A4000F22A24021EA020245F8232055F83D
:10102000231007F00F02A2400A4345F82320EA6884
:101030000123B340182F0CBF134322EA0303EB60D4
:101040000020F8BD4FF0FF30F8BD38B504460D461E
:10105000C0F38323023B04219940012000F0FCF9F6
:1010600024F00F03C4F3C00204F0070453F8220075
:10107000A4000F21A14020EA010143F8221053F8F7
:101080002200A54045EA000143F8221038BD20F0B7
:101090000F02012300F00F0083401361704720F01E
:1010A0000F02012300F00F008340536170470000DE
:1010B0002DE9F84F00F00F05012707FA05FA6FEA4E
:1010C0000A099B46064690462C4C226809EA020211
:1010D0002260FFF787FF2A4A0A9B42F835B002EBED
:1010E000C50253603846394600F0B6F905F00C03E6
:1010F00003F1804303F5803306F003029868920001
:101100000F21914020EA01019960C6F38326996876
:10111000023E96400E439E60A368042D09EA030335
:10112000A360A26808EA070303FA05F343EA02038F
:10113000A360E36828FA07F809EA0303E360E268BA
:1011400008FA05F848EA0202E2600E4B03DC0635B5
:10115000AF401F6007E0092DD5BF4FF400024FF4E8
:1011600080721A605A606368002009EA03036360B2
:1011700023684AEA03032360BDE8F88F00040140B6
:10118000EC0A002000E100E00E4B70B51D465A69E4
:101190001E68002416400123A340334207D06B6130
:1011A000094B03EBC402506853F8343098470134BC
:1011B000102CF0D1054B1B681BB1BDE87040FFF748
:1011C000F9B870BD00040140EC0A0020A002002024
:1011D000F8B50D4B1E681D46C6F3072222B9F4B2BE
:1011E000003418BF012400E00224FFF753FA2B68F3
:1011F00007469E4202D12046FFF744FB3846BDE831
:10120000F840FFF74FBA00BF2002002038B5094D63
:1012100004462B5CFF2B03D103200749FFF7ACFDED
:10122000FFF738FA2B5D0133DBB22B55BDE83840B0
:10123000FFF738BA2002002020E5000838B5094D34
:1012400004462B5C1BB903200749FFF795FDFFF708
:1012500021FA2B5D013BDBB22B55BDE83840FFF78F
:1012600021BA00BF2002002020E500082DE9F04F40
:10127000294B89B01B882949294A2A48ADF81C30D6
:101280000CF04EF9FFF778F80546FFF78BF80446A7
:10129000FFF784F82A4600904FF400712248234655
:1012A0000CF03EF9214F25EAE57507F180094FF46E
:1012B000007857F8044B0CB394F804B01C4BA06AA8
:1012C00053F82BA0266BFFF7EFFD07AABBF1090F20
:1012D00088BF0132B4F9061000926379301A019385
:1012E000236B03900293A36A054404932368114877
:1012F0000593E26A5346B0440CF012F94F45D8D139
:101300000D4902958DE802010C4A0B460C480CF081
:1013100007F909B0BDE8F08F94E5000810E6000871
:1013200015E60008C8E500081BE60008A802002032
:1013300098E5000865E60008BFE60008C1E6000879
:10134000A1E6000838B5FFF7A5F9204D0023AB60F2
:10135000044600F03FF84FF480636B602B465968F9
:101360001A4A11F00C0FFAD1194912200860812194
:101370001160116841F4803111601968134A8903C2
:10138000FBD5516821F47C115160516841F4E8119A
:101390005160516841F400315160116841F0807131
:1013A00011601A6809499201FBD54A6842F00202AD
:1013B0004A605A6802F00C02082AFAD100F016F8C6
:1013C0002046BDE83840FFF76DB900BF001002406D
:1013D00000200240044B1A6842F001021A601A68A9
:1013E0009207FCD5704700BF00100240044B5A68BA
:1013F00012F00C0F1EBF1A6822F001021A6070472B
:101400000010024008B500F019FE00204FF0805196
:1014100000F022F8FFF796FFBDE8084000F025B97C
:10142000034B044A00280CBF10461846704700BF03
:1014300000A24A0400512502044A054B002818BFA7
:101440001346044A105C5843704700BF00A24A0488
:101450000051250228E7000801280CD006D30228F5
:101460000DD1084A53691943516108E0054AD3690F
:101470001943D16103E0034A936919439161BFF3B2
:101480004F8F704700100240012809D002D3022874
:101490000CD07047084AD36923EA0101D161704733
:1014A000054A936923EA010191617047024A536931
:1014B00023EA01015161704700100240F8B5074668
:1014C000104A0301D55800242B69EE681E40022300
:1014D000A34033420BD0EA68214622EA0303EB60C3
:1014E000094B03EBC702506853F837309847013473
:1014F000042CECD1054B1B681BB1BDE8F840FEF78E
:1015000059BFF8BD2CE700086C0B0020A00200209A
:10151000032910B515DC0C4B00011C181B58606822
:10152000024001F10C0003EB8000426018690222C6
:101530008A4020EA02011961D96800200A43DA6072
:1015400010BD4FF0FF3010BD2CE70008024B00012A
:101550001B58586A704700BF2CE70008034B000176
:101560001A58136843F00103136070472CE7000812
:1015700001282DE9F04704460E4634D8DFF878A05C
:1015800005010AEB05071A4997F80C9041F830203D
:1015900001EBC0014B604846B968FFF75DFF5AF8A0
:1015A000055000232B606B607B684846EB62FFF7B9
:1015B00043FFB0FBF6F0797B01224BB2002BA8BFB2
:1015C00001F01F0100F1FF30A8626A61A2BF8A40EA
:1015D00008495B092046A8BF41F82320FFF7BEFF5A
:1015E0000020BDE8F0874FF0FF30BDE8F08700BF76
:1015F0006C0B002000E100E02CE700080020FFF762
:101600005DBF0120FFF75ABF836801685A1C8260E2
:101610004268013A1340C85C7047F8B505460F466A
:101620001646144654B1AA68EB689A4206D028467A
:10163000FFF7EAFF013C07F8010BF3E7301BF8BDA9
:10164000C36830B5846842681B1B93421FBFC368E0
:10165000046802F1FF325D1C1FBF1340C560E154F6
:10166000002008BF4FF0FF3030BD002009F0B6B8B1
:1016700038B503460C461546094819689A880BF098
:101680004FFF2544AC4205D014F8011B05480BF070
:1016900047FFF7E70448BDE838400BF0D1BF00BF73
:1016A0004CE7000879E70008F6ED000801282DE96D
:1016B000F0410D4602DC1548096821E00027144E70
:1016C0004FF0140808FB07667068A0B169680CF059
:1016D0003CF8044678B9304600F048FF30B930464F
:1016E000214642460BF079FE0A4800E00A48696844
:1016F0000BF016FF07E00137102FE0D107486968AB
:101700000BF00EFF01242046BDE8F0817CE70008C5
:101710007C0B002093E70008ABE70008CCE700084B
:101720000228F7B50C4604DC096823480BF0F8FEE4
:101730001FE0032809D0C8680BF066FC012806D01A
:1017400002280CBF4025002502E0002500E02025EE
:101750002B461A486168A2680BF0E2FE636802AE8D
:1017600046F8083D304600F0E7FD20B114480BF084
:1017700067FF01251CE0A76838460BF0F8FF2B46F1
:1017800002463946304600F021FE054630B1009948
:10179000BDF804200B480BF0C3FEEAE7A0680BF08D
:1017A000E6FF009A0146BDF8043007480BF0B8FE8A
:1017B000284603B0F0BD00BFF9E7000824E80008A0
:1017C00055E8000876E80008A8E8000810B500F021
:1017D0009BFD431C044601D1064801E020B10648A8
:1017E0000BF02EFF012010BD04480BF029FF20460E
:1017F00010BD00BFCFE80008F2E800080EE90008BD
:1018000070B588B005460C4602A8002118220BF0DE
:10181000E4FD0423029340F25B73012DADF81E300A
:1018200004DC21681C480BF07BFE07E003A861681C
:1018300006F06AFE20B919480BF072FE012527E078
:10184000022D03D10020054606460BE0A0680BF0F0
:10185000DBFB042DADF81E00F4DD2569E6682846A3
:101860000BF085FF00230090019332462B4602A81F
:10187000012100F0A1FCBDF81E20054620B16168E1
:1018800007480BF04DFED9E7064861680BF048FEAB
:10189000284608B070BD00BF24E9000860E90008D0
:1018A0007CE90008A1E9000808B540F25B70024934
:1018B00000F020FF002008BDCFE90008022810B585
:1018C0000C4604DC09680F480BF02AFE13E0486858
:1018D000002100F0A1FE08B10B480AE0A4682046F0
:1018E0000BF045FF0146204600F0D2FE044620B131
:1018F00006480BF0A5FE012402E005480BF0A0FE0F
:10190000204610BDD7E900080AEA000836EA0008B8
:1019100064EA00080128F8B504460D4602DC2248B6
:10192000096833E048680BF022FF402801D91F48BE
:101930002FE0022C09D0A8680BF066FB012806D026
:1019400002280CBF4027002702E0002700E02027E4
:101950000022174C142303FB0244238923B10132D4
:10196000102AF6D1134814E0134B144EE36006EB33
:101970008216696830460BF0F2FE666020463946F2
:1019800000F094FD044640B10D4869680BF0C8FDB5
:1019900001E00BF055FE012403E00A4869680BF0F2
:1019A000BFFD2046F8BD00BF95EA0008B9EA00086F
:1019B0007C0B002021EB000871160008FC0C0020B5
:1019C000E9EA00080BEB000810B51348A4B00BF0CF
:1019D00037FE12480BF034FE1148082100F090FA4F
:1019E00000214FF4A0720F480BF0F7FC0E4B0024BF
:1019F00000930E4B019402934FF48061234606221C
:101A00000B48FFF759FA0B4804A9802206F01AFF89
:101A1000204624B010BD00BF4DEB00086AEB000863
:101A2000BC0C00207C0B0020A9180008B8EB0008B3
:101A3000FC10002058EC000808B506F079FEFFF70E
:101A400085F804F041FA04F073FB01F023FA06F084
:101A50008DFA01F0FDFABDE8084000F001B8000081
:101A600013B5074C0749204609F06AF800944FF473
:101A700080610222044B054804F086F802B010BDD4
:101A8000FC180020ACEC0008C4EC0008FC1400209A
:101A900070B505460C46FEF7FDFD2B6806462BB9D2
:101AA0004FF0FF332B60FEF7FDFD18E0CCB10F4B7C
:101AB00002211C682046FEF7B1FB2B68013305D1DB
:101AC00004F10C032B600023E36003E02846214669
:101AD000FFF7D2F93046FEF7E5FDFEF76BFC01207B
:101AE00070BDFEF7DFFD204670BD00BF2C03002057
:101AF00070B50446FEF7CEFD256806461DB16B1C89
:101B000005D100232360BDE87040FEF7CBBD284619
:101B100050F80C390B212360FEF780FB236813B9C2
:101B20004FF0FF33236015F8074C3046FEF7BAFD3F
:101B30002046BDE87040FEF7B1BB034610B5C06952
:101B40009C691A6A041B944201DD002010BD441CEC
:101B50000240DC61F9D4586A00EBC20203C982E892
:101B600003001A8918466FEA42426FEA52421A810C
:101B700000F01CFA012010BD2DE9F8431E462A4B47
:101B8000074653F82140294B91461B8803802CB906
:101B90003046FEF787FD4FF0FF3542E0244BD3F887
:101BA00000802379032B2ED020463946FFF7C5FF4E
:101BB000054638B13046FEF775FD98F80430052B20
:101BC0002ED12BE0B9F1000F03D13046FEF76AFDAC
:101BD00027E098F804304046052B14BF0421052166
:101BE000C8F81070FEF71AFB04F114004146FFF725
:101BF00043F9238920466FEA43436FEA5343238125
:101C000000F0D4F907E0236903C883E80300204605
:101C10000B21FEF703FB3046FEF744FDFEF7CAFB3F
:101C200001252846BDE8F883A402002028030020EF
:101C30002C030020F8B505460E46FEF72BFD3A4B67
:101C40003A4A1B8807461BB252F823305A6ADAB167
:101C50009C69DA69A24217D0621C9A611A6A144020
:101C600046B95A6932B9621C04D13846FEF71AFDEA
:101C70002046F8BD002C0BDB5A6A02EBC40292E846
:101C8000030085E8030004E04FF0FF34002EE8D0A5
:101C90001D615E697EB33268002C5A610DDB03F171
:101CA000180126C9511AA942586AD7BF511C4FF0D2
:101CB000FF322A40D96100EBC205736893E8030044
:101CC00016F8083C85E80300052B09D00023736053
:101CD000A6F10C000B21FEF7A1FA16F8074C00E064
:101CE0000F243846FEF7DEFC0E2C02D82046FEF705
:101CF000D5FA0120F8BD002C11DA18460321FEF7B1
:101D00008DFA3846FEF7CEFCFEF754FB084B1B68F5
:101D10001879C0B20328ECD10649FFF72DF83846F0
:101D2000FEF7C0FCE5E700BF28030020A402002066
:101D30002C03002020E5000838B50446FEF7AAFC75
:101D4000074B21461B8805462380064B1868FFF782
:101D5000F4FE04462846FEF7A5FC204638BD00BF29
:101D6000280300202C0300200F4B10B553F821301E
:101D70000246B3B121210180197903290BD103C88F
:101D80001C6984E8030018460B21FEF747FA074B4D
:101D90000120186010BD1846BDE810401146FFF73D
:101DA000CCBE4FF0FF3010BDA4020020A0020020E6
:101DB00070B505460C46FEF778FC28B1284621464A
:101DC000BDE87040FFF7D0BF094B1B881BB2A34290
:101DD00004D12846BDE87040FFF7AEBFFEF75AFCBD
:101DE0002146034601222846BDE87040FFF7C4BEE5
:101DF0002803002070B505460C46FEF756FC064643
:101E000028B128462146BDE87040FFF7ADBF0A4B18
:101E10001B881BB2A34204D12846BDE87040FFF7DF
:101E20008BBFFEF737FC2146034632462846BDE805
:101E30007040FFF7A1BE00BF280300202DE9F0414C
:101E4000124F06463B880C461BB29342154603D1FF
:101E500003200F49FEF790FFFEF71CFC80463988EF
:101E60000C4B09B253F8217005213846FEF7D6F91C
:101E700096E803003C61434684E8030001222046C3
:101E80002946BDE8F041FFF777BE00BF28030020D8
:101E900020E50008A402002070B504460D46FEF7B8
:101EA000F9FBB4F90020114B064653F822401CB947
:101EB00003200F49FEF760FF2379052B04D0FEF7BE
:101EC000F1FB4FF0FF3070BD236995E8030083E814
:101ED00003000B212046FEF7A1F964793046FEF796
:101EE000E1FB2046FEF7DAF9012070BDA4020020D4
:101EF00020E500080021FFF79DBE0121FFF79ABEF3
:101F000008B5074B4A1E1B681140586203D00320D6
:101F10000449FEF731FF9961D9611A6208BD00BF1B
:101F20002C03002020E500080C4B70B505461C680A
:101F3000FEF7B0FB238906461D420BD120462561E2
:101F40000621FEF76BF93046FEF7ACFBBDE87040AA
:101F5000FEF730BABDE87040FEF7A4BB2C030020AA
:101F600038B505460C46FEF795FB2B881C4023EA46
:101F700004032B80FEF796FB204638BD024B01463A
:101F800018680830FFF7ECBF2C03002038B5044672
:101F9000054B1D68FFF7C8FF05F108002146BDE8A5
:101FA0003840FFF7DDBF00BF2C030020027910B5D9
:101FB000062A038A07D0072A0FD104891C40E31A96
:101FC0005C425C4101E004891C403CB10B21FEF7FE
:101FD00025F9034B01221A6000E00024204610BDC1
:101FE000A002002070B504460E46FEF753FB23897D
:101FF000227946EA0301062A05462181238A06D072
:10200000072A14D11940CB1A5942594100E019400E
:1020100069B120460B21FEF701F9074B0122284642
:102020001A60FEF73FFBBDE87040FEF7C3B92846D3
:10203000BDE87040FEF736BBA00200200C4B0D4AF5
:102040009A60102283F82220DA77002202F16041A0
:10205000013201F5614110203C2A81F80003F5D1DD
:102060001A6902431A615A6942F400725A61704750
:1020700000ED00E000000008F8B5164B164C1646BF
:102080001A68164B207003200F461A61FFF776FF7F
:102090000425134B3A461349134805F0ADFD0F488C
:1020A0001249FEF7F3FD0320FFF770FFC30705D5C4
:1020B0000A48FEF7D9FD0E4B1D6803E0013DE8D14B
:1020C0006FF00305FF23237016B10A48FFF710FDD8
:1020D0002846F8BD2C03002026020020FC1D00200D
:1020E0003C190020561B0020601D0020C0E1E400C8
:1020F000101E00205C1D00200221FFF773BF0000AE
:1021000038B5054C00202568FFF720FA2368AB425C
:10211000F7D1184338BD00BFD803002030B5144CA8
:102120002478844222D151B1124C1348655C214479
:102130000088497880B241EA0521884216D10F49CA
:1021400012B10C48825C3AB943B10A4AD05C1344DC
:102150005B7843EA002301E06FF001030B60084B5A
:1021600001211869BDE83040FFF73CBF30BD00BF1A
:10217000260200205619002054190020101E0020AD
:10218000FC1D0020F7284FF001029ABF831810466B
:102190000330054983BF80B2030A88700B7082BF89
:1021A0000A704B7003207047561B00200148012124
:1021B000FFF76EBC5C1D00202DE9F84FDDF828808C
:1021C00006460C469946174642B11BB10B9B33F0AD
:1021D000700303D003204849FEF7CEFD474DFFF7BB
:1021E000E5FFEB8A002B40F082802846314618221A
:1021F0000BF0E8F8002C14BF4FF0040B4FF0000B6D
:102200001FB14BF0080B5FFA8BFBDFF8F8A03C4CDA
:10221000DAF800000BF0ABFA0422627084F802B026
:102220000122DAF800B0E27022716822861D627124
:10223000584626700BF09BFA59460246A01D0BF03B
:10224000C1F8002F49D038460BF091FAC4288246D5
:1022500004D808F10402B2F5007F05D90023EB820F
:102260006FF00200BDE8F88F062031460022FFF72C
:1022700003FF834618B10023EB82BDE8F88F0AF113
:10228000020A5046FFF77EFF9DF82C3007222254A9
:10229000064622188244384653700BF068FA02460C
:1022A000B01C394620440BF08DF8082051465A46A0
:1022B000FFF7E2FE18B1A5F816B0BDE8F88F08F1F7
:1022C00001063046FFF75EFF092306442354013020
:1022D0002044494642460BF075F80520314601225C
:1022E000FFF7CAFE28B10023EB82BDE8F88F4FF05C
:1022F000FF30BDE8F88F00BF20E500083C19002042
:10230000561B0020581D002008B5094BDB8A5BB125
:10231000FFF74CFF074B022118201970587001225B
:10232000BDE80840FFF7A8BE4FF0FF3008BD00BF72
:102330003C190020561B0020F8B5054608B100687E
:1023400018B903201C49FEF717FD1C4BDB8A63B349
:102350000BF00DFAC4282BD8FFF728FF28680BF0E4
:1023600006FA174C174A0A23637013880630190AB5
:102370000026637120702171A670E670591C2F68C9
:102380001180114A384613800BF0F1F939460246A4
:10239000A01D0BF017F80B2021780122FFF76CFE2F
:1023A000002807DDA8803046F8BD4FF0FF30F8BDAB
:1023B0006FF00200F8BD00BF20E500083C190020C6
:1023C000561B002024020020541900202DE9F84358
:1023D0001C46838881468846154623B119B112B13F
:1023E00034F0700303D003202949FEF7C5FC294FC0
:1023F000FB8A002B40D0B2F5FB7F41D8630643D463
:102400000635FFF7D3FE2846FFF7BCFE224E0C230D
:10241000321833545470B9F80420831C110AF15453
:102420001E4933445A700A88031D4FEA122E06F8DB
:1024300003E033445A70531C0B80194B054406309B
:102440001A80304441462A460AF0BCFF14F02004AA
:1024500006D02946BDE8F8430D200122FFF70CBE47
:1024600031462A463B460F4805F0C6FB0E48FFF7AB
:102470003FFB2046BDE8F8834FF0FF30BDE8F8830E
:102480006FF00200BDE8F8836FF00400BDE8F88348
:1024900020E500083C190020561B002024020020E3
:1024A00054190020601D00205C1D0020F8B50E4668
:1024B000044630B1C36823B1406810B131F0E3077E
:1024C00003D003202249FEF757FC224BDB8A002B66
:1024D00038D00BF04CF9C42837D8FFF767FE606896
:1024E0000BF045F91C4D1D4A12236B701388053003
:1024F000190A2B712870AE70E9706668591C11803A
:10250000174A304613800BF032F931460246681DF7
:102510000AF058FF297813203A46FFF7ADFD051E53
:102520000BDD104A258111680B461BB1A34204D074
:102530001B68FAE71D46216014600B48FFF7D8FAC4
:102540002846F8BD4FF0FF30F8BD6FF00200F8BD2F
:1025500020E500083C190020561B00202402002022
:1025600054190020141E00205C1D0020F8B50446FC
:1025700008B143681BB903202049FEF7FDFB204B3F
:10258000DB8A002B37D0FFF711FE60680BF0EFF805
:102590001C4D1D4A14236B70138805300026190A40
:1025A0002B712870AE70E9706768591C1180174A4A
:1025B000384613800BF0DBF839460246681D0AF0F6
:1025C00001FF297815203246FFF756FD054668B908
:1025D0000F4A1368A34203D11B68136006E0134639
:1025E00023B11A68A242FAD122681A600948FFF79B
:1025F0007FFA2846F8BD4FF0FF30F8BD20E500080F
:102600003C190020561B00202402002054190020F1
:10261000141E00205C1D002031F0700370B50546CB
:102620000E4603D003201749FEF7A6FB164BDB8AA4
:102630002BB340B9154CFFF7B9FD1A2363704DB9A0
:102640000223237014E00BF092F8C428F2D96FF043
:10265000020070BD28460BF08AF80330207028462F
:10266000A6700BF084F829460246E01C0AF0AAFE88
:1026700021781B200122BDE87040FFF7FDBC4FF020
:10268000FF3070BD20E500083C190020561B0020DB
:1026900038B50C46054600B119B903201249FEF7BA
:1026A0006BFB124BDB8ACBB1B1F5FE7F19D801343D
:1026B000FFF77CFD2046FFF765FD0D4B1C2204440F
:1026C0001A5401302946224618440AF07BFE21465E
:1026D000BDE838401D200122FFF7CEBC4FF0FF308F
:1026E00038BD6FF0020038BD20E500083C1900201D
:1026F000561B00202DE9F04F054693B008460C46C6
:102700000BF035F8C32803D903208849FEF734FBC2
:102710000021182206A80AF060FE04230693844BC9
:1027200000221C60834C844B8448E360844B06A9E0
:102730001A601346ADF82E50226105F089F9002881
:10274000A04604DA29467F480AF0EAFEEAE0FFF7ED
:10275000D7FC81467C4D7D4E0DF1300BCDF800B09D
:10276000764831464FF400722B4605F0DFF9002819
:10277000374606DA743000F09E8075480AF0D0FEC5
:10278000D0E0012840F39780022802D13378012B52
:10279000E1D034786D4B012C05BF5C789B78A4B2F6
:1027A00043EA042414BF4FF0010A4FF0030A8442A5
:1027B000D1D88245CFD216F80A30053B182B7AD8EB
:1027C000DFE803F00D1179137979151A4A797979CF
:1027D00079794F7954597962797971797300052043
:1027E0000021022264E0062060E008205EE00B2069
:1027F0000421062202235CE00AF10605AC425AD30A
:102800000AF1020316F803C0F918524BCDF80CC0B8
:1028100018689A889B790490ADF814200DF1120085
:1028200004228DF8163091F801B00AF0CBFD07EBC9
:102830000A035B78DDF80CC013F0DD0F01D0032331
:1028400055E0454A4BEA0C2B1668002E4ED03289D3
:102850005A4555D03668F8E70D200421062200239A
:1028600027E0132005210722032322E00022152060
:10287000022113461DE0394B30481B8804A9ADF8EE
:10288000103002225B4638E0354B1B78182B12D1F2
:10289000344A0023D382344AD8F81000012113604F
:1028A000FFF7A0FB07E01B2000E01D2000210A46E7
:1028B0000B46FFF733FCFFF723FC2C4BC9EB000260
:1028C0009A4204460ED9274BDA8A0AB9A14641E753
:1028D000274A04A912881948ADF81020022205F0F1
:1028E0008BF9F3E7184D4D442D1A34E702238DF888
:1028F000163012481B4B04A9072205F07DF9DAE7D0
:102900009B0605D50D4804A90722164B05F074F95E
:10291000CAEB0402063A14BF79191146F368301D58
:102920009847C8E713B0BDE8F08F00BF20E5000866
:10293000581D0020FC1D0020F9200008601D00200B
:102940005C1D0020D9EC0008002A751556190020DE
:1029500008ED0008CEEC0008141E0020D5EC00089D
:10296000260200203C190020101E0020FF297515AA
:10297000D7EC0008002103F0A9BB70B50446002085
:1029800015461E462246CBB2014602F097FF04468A
:1029900018B92846FFF7EEFF02E043681E71056094
:1029A000204670BD10B50C4618B903201249FEF739
:1029B000E3F94B68B0F8B0205A800B6800221BB1D5
:1029C00099681B680A44FAE7B0F89C309A4205D926
:1029D0002046BDE810407A2103F078BB012007496A
:1029E00040F20222234602F011F820B92046BDE849
:1029F0001040FFF7BFBF10BD20E500080000FFFF3B
:102A00002DE9F84391E8140006460D4600231AB15B
:102A1000916812680B44FAE75BBAA380A379FF2B95
:102A20000CD12B6843B11B7C023BDBB2022B03D8D9
:102A3000284AD35CFF2B00D13B23A371E3792BB948
:102A40000EB9402301E096F8AE30E37104F10807B7
:102A50003846214910220AF0A5FC8046D0B904F17D
:102A600018091E49484610220AF09CFC014630B95C
:102A7000384610220AF0B1FC0123E3750AE049460A
:102A80003046424602F06CFC014618B1384610222E
:102A90000AF098FC2C4694F91030022B06D0204600
:102AA000294603F0E9F800280BDA08E0206800283E
:102AB000F5D003F019FB38B120600446EBE7023093
:102AC00002D10120BDE8F8832846FFF753FF00201C
:102AD000BDE8F88338ED000849EE000859EE00081B
:102AE0002DE9F041A0B01022002105A80AF075FCE4
:102AF000B74B10A80693B74B08211B88ADF82030C0
:102B0000FFF7FEF9022005A903F05CF840F2052367
:102B1000ADF80E3001A8FFF7F0F944F6C373BDF825
:102B20000610994219D844F6C073994280F0A981E1
:102B300040F2022399427CD004D840F2012399420A
:102B40001FD0E7E7B1F5017FE4D86FF0850301A856
:102B500003A90493FFF7A0F9DCE744F6CF73994289
:102B600009D844F6CB73994280F08B81A1F59F433D
:102B7000453B042B03E0A1F59F43513B012BC9D8F2
:102B80007FE1029D1DB903209349FEF7F5F8284621
:102B90004FF0FF3103F081F820B14368B3F9020030
:102BA00002F0B9F86B680646002B00F0E480AA68D2
:102BB000272A40F2E0801B7803F0F003602B40F0FE
:102BC000DA80284603F090FA0446002800F0D3800B
:102BD0002821022203F0AEF900232374002800F01C
:102BE00024814768FB7913B92046742142E0B988F3
:102BF000BD7949BA89B211B93B2D40F01681A04286
:102C000006D0A368994203D2204603F0FBF934E0D2
:102C1000224600239068034492F91000022804D150
:102C2000283B994229D9204623E01268002AF1D195
:102C3000F6E7029D95F91030013340F08C806C6806
:102C4000002CA0D0B4F9020002F065F8074628462F
:102C5000267903F049FA06F03F060146002800F005
:102C60008A8003F022F8054695F91030022B75D0C2
:102C70002846162103F02AFA4CE707F118084046C7
:102C8000564910220AF08EFBE8B14046544908220A
:102C90000AF088FB60B13B7EFF2B04D17B7E03F002
:102CA0000F03022B04D0404602F010FC064604E05D
:102CB000002EF8D0404602F009FCB0FA80F040093E
:102CC000002840F0B280292D06D03A2D06D0112DD3
:102CD0000CBF0423002302E0022300E0032323743B
:102CE000A5F13A035F424FF0020029465F4102F02E
:102CF000AFFF002800DC37B12046012103F0D4F9F2
:102D00004FF0010800E0B84694F91000304940F255
:102D10000122234601F07AFE10B92046FFF72AFE71
:102D2000B8F1000F0FD01FB12046012103F0BCF90C
:102D30000220294640F20122234601F067FE10B925
:102D40002046FFF717FE3A2D7FF4E4AE30462146C9
:102D500008F0AAFFDEE60026374685E768682149C5
:102D6000183010220AF01EFB002881D0284603F0FC
:102D7000BBF9044608B9284658E045682B7EFF2B6E
:102D800032D18FB901F0BAFF00284ED0384601F099
:102D90009BFF07460020224601463346FFF7EDFD24
:102DA000044600283FF4B6AE38462146FFF728FE19
:102DB00000283FF4AFAE00200146224646F0400313
:102DC000FFF7DBFD014600283FF4A4AE384655E08E
:102DD0000000FFFF2803002020E5000859EE00084E
:102DE00009EE000849EE00081835284602F06EFB8F
:102DF00026498046102228460AF0D4FA10B1B8F1CC
:102E0000000F16D040462146FFF7FAFD68B1204674
:102E100002F061FF48B902201D4940F20122234619
:102E200001F0F4FD00287FF475AE2046FFF7A2FD07
:102E300070E628463946224609AB00F077F90028AB
:102E4000FFF668AEBDF83C00C0F3041001F063FF6C
:102E5000054600283FF497AE2146FFF7D1FD002834
:102E60003FF458AE9DF83E100DA822463346FFF7BA
:102E700084FD014600283FF44DAE2846FFF792FD41
:102E800048E6029800F0B0FC44E600BF59EE0008A6
:102E90000000FFFF1FB50A4CB4F9003063B9094ABE
:102EA00009488DE80C00094B4FF48061029304221D
:102EB0000823FEF701F82080B4F9000004B010BD2B
:102EC000181E0020E12A00081A1E002033ED000819
:102ED00008B5022102F0E1FE70B143681BB903207E
:102EE0000649FDF749FF8268272AF8D91A7802F0C7
:102EF000F002602AF3D1184608BD00BF20E50008A3
:102F00002DE9F8431446074688469946094D0A4B71
:102F100028461E88114608F05FFE002384E8080258
:102F2000A4F80A80E760268128462146BDE8F843D8
:102F300008F028BE1C220020181E002010B50A49E7
:102F4000082204460AF02EFA48B12378FF2B08D154
:102F5000607800F00F00831E5842584110BD0120D8
:102F600010BD002010BD00BF09EE0008F8B50746EF
:102F700014461E4606980D4679B191F8AF30092BDC
:102F80000BD13046394610220AF01CFAB5F8B030A1
:102F90001B0133830023B3761EE018B1314600F0E5
:102FA000ABFE19E038462946324601F06BF998B974
:102FB00015B1B5F9B01000E029463846022200F0FC
:102FC00021FE054620460DB9294601E034B176219F
:102FD00003F07CF80020F8BD0120F8BDF8BD30B545
:102FE000036885B0044683B393F8362012072CD5C6
:102FF0002146102268469D8E0AF0E4F9204600F032
:10300000E5FEC5F304150024204601F033F804461C
:10301000D8B120680028F7D0838EC3F30413AB42E5
:10302000F2D10430694605F040F90028ECD022685E
:10303000002384F8343092F83630204623F04003E1
:1030400082F8363000F0F0FFDEE705B030BD00005A
:10305000012110B50948FEF71BFD094B996929B1FB
:103060000C68074808F0B8FD2146F8E700F040FD7D
:10307000BDE810400148FEF73BBD00BF8C24002096
:103080001C22002030B5044685B018B9032024491D
:10309000FDF772FE01F0D4FE4FF47A73C4F8943059
:1030A000012384F89A3094F8AF300021042B84F87F
:1030B000981014D1082301A80C22ADF802300AF0B0
:1030C0008CF905238DF804300DF1020302930223DD
:1030D000ADF80C30236820461B6901A998470025EC
:1030E00084F8995020460F4902F007FAA84220467A
:1030F00011DB40220C4901F027FA4FF47A7128467F
:1031000005F022FB44F6C371034604F16402204635
:10311000FFF7F6FE204601F09AFE05B030BD00BF75
:1031200020E5000819EE000809EE00082DE9F0433B
:103130000C468DB0074608461646994601F080FEBB
:1031400051480121FEF7A4FC14B1B4F9B01000E01D
:103150002146384600F002FD804608B1858E16E013
:103160000546284600F086FF054698B195F83430AC
:103170005A07F6D5EB8EDB07F3D53846291D05F047
:10318000A9F895F835308342EBD82B689D8EC5F3AE
:10319000041503E03846FFF7D1FED8B13846FFF7F3
:1031A000CDFE48B945B1204601F051FE28B201F0EC
:1031B000B2FD044601F044FE002C53D0CDF800804F
:1031C0003846214632464B46FFF7D0FE002818BF4E
:1031D000002540E03846314603AA00F099FF051E5D
:1031E0000CDB07A8294910220AF0DCF860B92DB9D8
:1031F00007A8394610220AF0E5F805E07EB330460C
:10320000722102F063FF2AE074B1B4F9B020BDF876
:103210002E309A4202D0204601F019FEB4F9B020B7
:10322000BDF82E309A4207D0BDF92E0001F073FD93
:10323000044601F005FE14B1B4F9B01000E02146D7
:1032400007A800F08BFC21460090324607A84B46A9
:10325000FFF78CFE002808BF6FF0750509E06FF0DE
:10326000710506E01EB13046762102F02FFF6FF0A7
:1032700075050548FEF73CFC204601F0E8FD2846B0
:103280000DB0BDE8F08300BF8C24002049EE00089B
:103290002DE9F04F894687B015461F46044618B9F8
:1032A0000320B749FDF768FD01F0CAFDB5480121CB
:1032B000FEF7EEFB2B78872B1AD0882B00F0DB80F3
:1032C000862B40F0258109F1080B5846FFF736FEA2
:1032D000002800F01D8199F80730FF2B40F018817D
:1032E0006B78002B40F014810F2F40F2118118E110
:1032F00099F80730FF2B40F00B816B78002B40F0E2
:103300000781172F40F204812B7AFF2B00F00081F8
:1033100009F1080840469C4910220AF043F880B1A0
:1033200005F1080A2046514602F002F8031E0293F6
:10333000C0F2EE80A7F1180605F1180B5946334686
:1033400012E009F1180091490D220AF02BF800282B
:10335000E6D0DDE0BB4200F2DB804A78002A00F0D4
:10336000D780D2009B1A1144002BF3D140468649E6
:10337000102203930AF016F8039B20B900935046DD
:103380002146424674E0D4F8A030D90715D440460F
:10339000B4F9B010032200F035FC0EE09BF80030C9
:1033A000012B05D1204649462A465B4600F002FB28
:1033B0009BF80130DB00F61A9B44002EEED1029BF5
:1033C00023441B7C9A0649D55046B4F9B01000F04E
:1033D000C5FB074618B190F83630DB0702D4002051
:1033E000014638E099F81830FF2B11D104F1A401FF
:1033F00004A894F8AC2009F0E5FF94F8AC1039B1BA
:1034000004A8324601F09AF9054698B1402101E03E
:103410003546602150462A4601F024F9814610B90C
:103420002846494617E00021424608F021FD06469D
:1034300010B9484631460EE04368FF220020DA7199
:1034400001460246034602F039FA0546002840F0DC
:103450007B813046294602F039FE59E0504621462C
:10346000424699F818300096A3F1FF056B426B4174
:1034700001F0D0F94CE099F80730FF2B48D16B7878
:10348000002B45D1172F43D92B7AFF2B40D099F829
:103490001830FF2B02D12B795A0639D4A7F118081E
:1034A00005F11806314642463AB1BA4230D84B7857
:1034B00073B3DB00D21A1944F6E705F10800B4F93A
:1034C000B01000F04BFB074610B390F83630DB0726
:1034D0001ED5B8F1000F1BD03378212B07D18DE812
:1034E000C000204649462A46334600F073FF7378F1
:1034F000DB00C3EB08081E44EBE7537843B1DB0065
:10350000C3EB08081A44B8F1000F12D0B845F4D93B
:103510001C48FEF7EDFA204601F099FC07B0BDE823
:10352000F08FA7F1100305F110060293324698467A
:10353000E9E7EF88B4F9B010BBB2ABB1584600F080
:1035400017FC7FBABFB283460028E1D04FF47A73EC
:103550005F43021D3B4644F6CD71FFF7D1FC781C5A
:1035600028BF4FF0FF3715E0584600F05FFC834658
:1035700070B1FFF734FD4FF0FF37C3460AE000BFDC
:1035800020E500088C24002049EE000839EE0008F0
:103590004FF0FF372B790BB184F8AE30EB6813B1E5
:1035A0001BBAC4F89430BBF1000F22D0237C13F077
:1035B000EF0F03D004F1120000F0A2FE637C13F0C1
:1035C000EF0F16D004F1220000F09AFE11E03378DC
:1035D000032B2CD011D8012B05D1204649462A4671
:1035E000334600F0E7F97378029ADB00D21A0292B0
:1035F0001E44029B002BEAD198E0052B09D0222B18
:10360000F1D12846314600F07FFF874228BF0746A8
:10361000E9E77378012BE6D12B78862BE3D1736829
:103620001BBAB3F5A06FDED3A4F89C30DBE7737848
:10363000D6F80480D6F808C0042B98FA88F89CFACB
:103640008CFA02D04FF0FF386CE02B78862BF9D142
:1036500006F1100B5846FFF771FC0028F2D1D04557
:10366000F0D3F378590604D520465946B27800F0D5
:103670006BFF96F90330002BE4DA7368B27803929B
:10368000DBB99846404600F0F5FC80460028D9D0CA
:1036900098F834305A07F5D598F83530039A9342A4
:1036A000F0D108F10400594604F014FE039B98423F
:1036B000E8D3404600F06CFDE4E7B8F1FF3F08D0E6
:1036C0002B4B98459ABF4FF47A7303FB08F86FF0C1
:1036D0000108BAF1FF3F08D0254B9A459ABF4FF435
:1036E0007A7303FB0AFA6FF0010AB4F9B000594685
:1036F000CDF800A0039A434600F052FD0028A1D067
:1037000096F90330002BBEBFC38E43F00103C3867E
:10371000F3785B0642BFC38E43F00203C386D045F5
:1037200028BFD046474528BF47465CE704F16405FB
:103730001048294608F050FABB08204644F6C371E9
:103740002A4603EB43030FE04368B4F8B0204FF47C
:103750007A715A800660002004F0F6FF44F6C271C8
:103760000346284607F12402FFF7CAFBD0E600BF54
:10377000378941001C22002038B5054601F060FB66
:10378000284644F6C37100F065FD95F89830022B89
:103790000CD9033B4FF47A649C404EF6602304F549
:1037A0001C5410349C4228BF1C4601E042F21074A5
:1037B000A04212D928460B4901F0A4F895F8983098
:1037C0002846092B9CBF013385F8983044F6C37115
:1037D00005F164022346FFF793FB2846BDE8384015
:1037E00001F035BB29EE00082DE9F8430D460446EB
:1037F00001214E48FEF74CF9A5F59F4142390D29AC
:1038000000F28E80DFE801F007158C8C8C8C8C8C9C
:103810008C8C19858C890220454940F2022223466E
:1038200001F0F4F800287BD12046092102F04EFC7B
:1038300076E02046FFF7A0FF72E02368988EC0F381
:10384000041001F068FA0546FDF792F900234FF4E1
:103850007A7209F001F90746284601F0F1FAA36BE4
:103860009F422BD3334804F1140105F11206271DA2
:1038700008F0B2F93046394604F02CFD94F83530A2
:10388000834203D82846314601F090FE05F1220616
:103890003046394604F01EFD94F83530834203D893
:1038A0002846314601F082FE94F83430204623F059
:1038B000040384F8343000F0B7FB26E0E36B9F424A
:1038C00023D305F11209C84605F110064046211D13
:1038D00004F000FD94F835300136834298BF16F8A5
:1038E000012C08F110089EBF22F01F0242F00802CE
:1038F00006F8012C4E45E9D1A36B204644F6CC7165
:1039000004F11402DB1BFFF7FBFA284601F09FFAD3
:1039100006E02046FFF763FB02E0204600F0F0FCE3
:10392000BDE8F8430148FEF7E3B800BF8C2400204F
:103930000000FFFF1C220020F0B50C4685B00746B2
:1039400016461D4600F090FA1CB903201849FDF7F1
:1039500013FA16B30068B4F9B020838EC3F30413CE
:1039600093421AD10430294604F09FFCA8B1D4F840
:10397000A030DB0719D5204604F1A40194F8AC204F
:1039800002AB01F033FF08280FD100200F2102AA5B
:10399000034604F02FF808B907E000200090214604
:1039A000384632462B4600F0D7FE05B0F0BD00BFCA
:1039B00020E500082DE9F04117469846054618B95C
:1039C00003201F49FDF7D8F901F108063046B5F983
:1039D000B01000F0C3F8D5F8A0300446D907EFD5F1
:1039E00095F8AF00414604F087FE002826DB1CB1A5
:1039F00094F83630DA070ED43046B5F9B010032209
:103A000000F000F90446C8B13B78872B03D1838EC0
:103A100023F00803838694F83630DB070ED53B7815
:103A2000862B03D1A38E43F0080304E0872B05D037
:103A3000A38E23F00803A386BDE8F081BDE8F081E2
:103A400020E5000803460830B3F90810FEF78CB9EA
:103A500038B5054608B901200BE00C1D2046064983
:103A6000102209F09FFC0028F5D02846214604F0DA
:103A70001CFC00F0010038BD49EE000808B590F8C4
:103A8000361021B9382209F0A8FC012008BD002019
:103A900008BD000070B5064610460C461546FFF7F7
:103AA000EDFF26B1281D3146102209F08BFC1F2C9A
:103AB00003D903200549FDF75FF9AB8E240123F4F8
:103AC000F87304F4F8741C43AC8670BD20E500085C
:103AD000064A106840B10368984202D1002313607F
:103AE00070471A6802601846704700BF38220020ED
:103AF0000148024908F094B81C220020453A000809
:103B0000F8B50D4C0746A38E0D46C3F304138B4244
:103B1000264603D12146FFF79BFF18B996F83630A9
:103B200033B9054C38462946034AFFF7B3FF00E096
:103B300000242046F8BD00BF5424002030B90548B9
:103B4000054B984204D290F8363013B93830F7E775
:103B500000207047542400208C24002008B5024621
:103B600018B903200B49FDF707F90B4B93F8360002
:103B700008B9002008BD9B8EC3F3041313B109B12B
:103B80008B42F6D10548114604F08FFB0028F0D097
:103B9000014808BD20E500085424002058240020D6
:103BA0007047000010B5044690F8363004F1240147
:103BB00023F0010380F83630104808F00DF8104B60
:103BC00019681A46A9B10B68A34202D1FFF780FF1A
:103BD0000FE00B461B681868A04208D14BB1216862
:103BE00019601268944204BF054A136001E08B42D9
:103BF000F0D12046BDE81040FFF740BF1C22002056
:103C0000382200202DE9F84F8846814618B9032054
:103C10003749FDF7B1F802F007073B1F022BF6D931
:103C2000FFF76EFF002830D1FFF752FF044600284F
:103C300047D0054695F83600AB8E30F0010002D132
:103C400013F4C06F3FD000262A4B1A689B4622B15E
:103C500012682A601A68156000E02D60DFF894A0F1
:103C60001D607EB9FFF734FFA0420546E2D1DAF8C5
:103C70000030002B37D01B682360DAF800301C605E
:103C8000CBF800403046BDE8F88F90F83630DA07C0
:103C90005FBF828E43F0010322F0070280F83630C6
:103CA00003685CBF17438786FBB9124B1A6822B1C1
:103CB000126802601A68106000E000601860BDE8D9
:103CC000F88FBDE8F88F2846FFF76CFF484641465D
:103CD0002A46FFF7DFFEAB8E2E463B43AB86012321
:103CE00085F83630B0E72460CAE7BDE8F88F00BF3A
:103CF00020E500083822002070B50C46054600B1CA
:103D000019B903201849FDF737F810220846291D74
:103D100009F058FBAB8E2383A88EC0F3041000F08B
:103D2000FAFF124906460822204609F03BFB38B14B
:103D30002378FF2BE5D1637803F00F03022BE0D14A
:103D4000002EDED0D6F8A03005F10C01DB0704F11F
:103D50001002D6D596F8AF0004F0B2FC002801DBC3
:103D6000A07670BD70BD00BF20E5000809EE000818
:103D7000F8B5154C074625680E4685B1AB8EC3F3E2
:103D800004138B421ED1291D04F08FFAD0B195F88F
:103D90003630204643F0080385F83630F8BDFFF78B
:103DA000AFFE0246206058B138463146FFF772FE3A
:103DB000226892F8363043F0080382F83630224603
:103DC0001046F8BD0022FBE740220020036810B532
:103DD00004466BB193F8362022F0080283F83620AF
:103DE0000068FFF74BFE20460021142209F0F5FA87
:103DF000034B1A68944204BF00221A6010BD00BF32
:103E00003C22002028B90748074B984208D2036893
:103E10000BB91430F8E793F83630002BF9D000E0F6
:103E200000207047402200205422002038B50C4C5E
:103E3000256885B1AB8EC3F304138B420BD1291DCA
:103E400004F033FA38B195F836301B0705D4032057
:103E50000449FCF791FF002038BD204638BD00BF63
:103E60004022002020E5000838B5124D2C6834B1FE
:103E700023689B8E03F00703013B012B17D800201A
:103E8000FFF7C0FF50B92046FFF7BCFF04B110B9DF
:103E90000020FFF7B7FF28602C6808E003689B8EBE
:103EA00003F00703013B012BEAD9044628602046B2
:103EB00038BD00BF3C22002038B50C46054610B185
:103EC000036803B119B903201349FCF755FF0846ED
:103ED0001022002109F081FA104A0023126884F8A8
:103EE0002030954208D12B689B8E03F00703013BDD
:103EF000012B94BF0023012384F82130296804F1A9
:103F000010000431102209F05DFA2B689B8EC3F378
:103F10000413638438BD00BF20E500083C22002064
:103F20002DE9F74F80468A461D4691461AB903206F
:103F30003949FCF721FF10463849102209F032FABE
:103F40000028F4D06B1E7F2BF1D800263446344F66
:103F500097F831203B1FAA42019357F804BC27D1A0
:103F6000BBF1000F24D0BBF83420C2F30412524539
:103F70001ED140465946FFF76BFDC8B13846494649
:103F800004F0A8F9A84213D3019CB8F1000F05D0A2
:103F90000BF104004146102209F014FA214BB6013E
:103FA0009A5992F8363043F0400382F836302EE0CA
:103FB00024B9019BBBF1000F08BF1C460136082E37
:103FC00007F14007C4D114B340465146FFF798FDAE
:103FD0000646206030B920463146402209F0FDF9FE
:103FE000344614E0404651463246FFF753FD204622
:103FF00050F8042BEDB292F83630494643F04003B6
:1040000082F836302A4604F088F984F83550204684
:1040100003B0BDE8F08F00BF20E5000849EE0008BE
:104020005822002054220020026810B50446E2B154
:104030000E4B9C420E4902D01868824203D0403396
:104040008B42F6D301E08B4208D392F8363023F04E
:10405000400382F836302068FFF710FD2046BDE8A7
:1040600010400021402209F0B8B910BD54220020B0
:104070005424002030B90548054B984204D290F8EA
:10408000343013B94030F7E7002070475422002045
:1040900054240020054B984206D303F50073984240
:1040A0002CBF0020012070470020704754220020C0
:1040B00038B50C46054610B1036803B119B90320A1
:1040C0001249FCF759FE08461022291D09F07AF919
:1040D00095F83530002184F8203084F821102A68C2
:1040E00004F11000938EC3F30413638495F8343005
:1040F000042B04D1BDE83840102209F06EB9111D1F
:10410000BDE83840102209F05DB900BF20E5000885
:104110002DE9F0411646804600B11AB9032019492D
:10412000FCF72AFE00242746174D95F834305BB182
:10413000281D414604F0CEF8B84205D995F835302F
:1041400083429CBF07462C46104B40359D42ECD322
:104150001CB194F83430042B08D1FFF785FE08B960
:1041600024B90AE03146FFF7A7FE03E020463146B6
:10417000FFF79EFF0020BDE8F0816FF07100BDE801
:10418000F08100BF20E500085422002054240020C4
:1041900090F8343023F0040380F83430FFF744BF44
:1041A0002DE9F843864614460F461E460020234656
:1041B00071463A46089DFFF7B3FE0446002840D0FA
:1041C00090F83430AE4243F0040380F8343003D228
:1041D00003201D49FCF7D0FD771C01D1681C2ED0AF
:1041E000FCF7C6FC4FF47A72002308F035FC691C1A
:1041F00007461DD0154B04F1140815484146B3F885
:10420000009007F0E9FC0023636144F6CC73A561DC
:10421000E3832462A4F81C900D48414607F0B2FCE9
:10422000AA1C05D07B19013301D107B101353D44EA
:10423000F31C04D8BB19013308BF01363E44A66302
:10424000E5632046BDE8F88320E50008181E00203D
:104250001C22002010B50A4B9A69002352B1546801
:10426000234454898C4203D138B1D468844204D0A9
:104270001268F3E74FF0FF3010BD184610BD00BFC5
:104280001C22002070B5064615460C4609B90020D0
:1042900070BD1949082209F085F838B13378FF2B31
:1042A000F5D1737803F00F03022BF0D1D4F8A030CE
:1042B00006F10801DB0705F1100203D403200F49C2
:1042C000FCF75AFD94F8AF0004F0FAF9C0B20028E8
:1042D000DDD0A87631462846102209F073F8B4F9EB
:1042E000B03001201B0103F4F87343F4806343F002
:1042F00006032B8370BD00BF09EE000820E500080F
:104300002DE9F843044601F0E1F80546FFF7ACFD5E
:10431000061C18BF0126A6B1002D53D00068B5F9C0
:10432000B020838EC3F304139A4203D0032026499E
:10433000FCF722FD0430294622460346FFF7FCFA2B
:1043400001E0002D3ED02146284600F0F1FF044652
:1043500086B329180B7C03F01F02102A09D003F042
:104360000702013A012A25D80133D5F894800B744D
:1043700001E04EF6602805EB04167436134B314607
:104380001348B3F8009007F027FC05EB0410002356
:10439000436744F6CF7305EB041740F8788F123764
:1043A0008760C380A0F804903146BDE8F843084810
:1043B00007F0E8BB002385F898302846BDE8F843AD
:1043C000FFF7DAB9BDE8F88320E50008181E0020E1
:1043D0001C2200202DE9F3470C461F46054618B95C
:1043E00003204649FCF7C8FC5B78022B01D004206F
:1043F00081E01378882BFAD1D0F8A030DB07F6D50E
:1044000000F1A40190F8AC206B4601F0EFF9082808
:10441000EDD1DDE90023F968B8688B4208BF82421C
:10442000E5D1BB78012B42D002D3022B45D061E00D
:1044300004F118012846FE8800F07AFF76BAB6B279
:10444000012E18BF4EF66023044605EB000218BF8C
:104450005E43137C05EB001823F01F0343F01003A9
:10446000137408F17408264B18BFA6F56A4605EBCD
:10447000001941462348B3F800A014BF603E47F23C
:10448000305607F0A9FB05EB04100023436744F600
:10449000CF7340F8786F09F11209C380C0F8089013
:1044A000A0F804A04146174807F06CFB22E028461C
:1044B00004F1180101F07AF81CE004F10800B5F9E4
:1044C000B010FFF7B3FC0646002889D0FFF77EFC4A
:1044D0000020FFF797FC28B985F898002846FFF7D9
:1044E0004BF907E03368002B3FF47AAF04F1180072
:1044F000FFF706FFB87802B0BDE8F08720E50008B6
:10450000181E00201C22002013B54B78022B17D157
:104510008A78402A14D80378862B11D1C8880831AC
:1045200040BA84B211F8050CC0F30013009300F0F8
:104530000F00234601F0D2FF4EF66020604301E0F9
:104540004FF0FF3002B010BDF0B5044685B00E4606
:10455000174668460021102208F03FFFD4F8A0302B
:10456000DB073AD502AB04F1A40194F8AC20204655
:1045700001F096F9684631463A4603F0CEFE2046F1
:10458000694600F0D5FE051E09DA204669463A461E
:10459000072300F043FE051E1FDB012700E0002774
:1045A00030460F49082208F0FDFE70B13378FF2B2A
:1045B00004D1737803F00F03022B06D06FB104EB24
:1045C00005101230FFF79CFE07E06219137C23F000
:1045D0001F0343F010031374F0E705B0F0BD00BFF4
:1045E00009EE000870B50646184607F041FC04467F
:1045F000A8B14368FF220020DA7101460246034653
:1046000001F05CF9054620B92046214601F04DFB3A
:1046100003E0328843685A800460284670BD70BD4C
:1046200010B5044610B10378FF2B03D103200C49C9
:10463000FCF7A2FB084600228721182307F082FB23
:1046400068B1436800221A715A719A71DA7121684F
:1046500062689960DA60A168E26819615A6110BD08
:1046600020E5000838B50D46044610B10378FF2B4D
:1046700003D103200D49FCF77FFB1046882100225F
:10468000182307F05FFB78B14368002225F01F056F
:104690001D71DA719A715A71216862689960DA60E5
:1046A000A168E26819615A6138BD00BF20E50008C1
:1046B00008B585210022082307F044FB28B1436890
:1046C00000221A715A719A71DA7108BDCB1D00214E
:1046D00010B50446104603F0F8020B4601F010FC3A
:1046E00020B1426814708368DB08537010BDF8B5C0
:1046F00007460E4618460231FFF7E8FF044660B150
:104700004568826802350021023A284608F065FEB5
:1047100028463946324608F055FE2046F8BD0000CE
:1047200010B500B119B903200349FCF725FB01239B
:10473000BDE81040FFF7DBBF20E5000810B500B171
:1047400019B903200349FCF717FB0223BDE8104009
:10475000FFF7CDBF20E500082DE9F341089D0C4689
:1047600016469846074610B10378FF2B03D1032065
:104770002549FCF701FB0029F9D0B8F1000FF6D06C
:10478000084600F05DFB36B932462046394600F057
:10479000E7FD0646A8B130461C49102208F002FE8B
:1047A00078B104F1A401684694F8AC2008F00AFE40
:1047B00094F8AC1029B168462A46FFF7B1FFC8B19A
:1047C000054638462946FFF72BFF074690B104F10E
:1047D000B000314642463B46FFF704FF054640B174
:1047E00002200B4940F202222B4600F00FF908B1DB
:1047F00004E03D462846002101F068FC204600F018
:1048000026FB02B0BDE8F08120E5000849EE000873
:104810000000FFFF2DE9F04786B00C4691469A460E
:104820000E9E074610B10378FF2B03D103203149B8
:10483000FCF7A2FA0029F9D0002AF7D0084600F0C8
:10484000FFFA2046394600F073FDB0F1000847DB5F
:1048500048462949102208F0A5FD054602A825B9B9
:104860002649102208F0AEFD07E04946102208F064
:10487000A9FD4025BAF1000F0FD004F1A40168464C
:1048800094F8AC2008F09EFD94F8AC1029B168466D
:104890003246FFF753FF18B306463EB1A04498F8DE
:1048A00010309B0644BF45F02005EDB2294638463E
:1048B0003246FFF7D7FE054690B104F1B000002163
:1048C00002AA2B46FFF78EFE064640B102200C4995
:1048D00040F20222334600F099F808B104E02E4677
:1048E0003046002101F0F2FB204600F0B0FA06B09D
:1048F000BDE8F08720E5000849EE000819EE000841
:104900000000FFFF2DE9F3410E46054618B90320CC
:104910002249FCF731FA224B002908BF1E4600F05D
:104920008FFA28463146002200F01AFD804690B1E9
:1049300005F1A401684695F8AC2008F043FD95F810
:10494000AC1031B168460022FFF7EAFE044618B900
:104950001AE00C4600E004462046FFF7A9FE074691
:1049600090B105F1B000414632463B46FFF73AFEB2
:10497000044640B102200B4940F20222234600F0D7
:1049800045F808B104E03C462046002101F09EFBBA
:10499000284600F05CFA02B0BDE8F08120E500088E
:1049A00029EE00080000FFFF10B5044688B006930A
:1049B0000A9B8DF81410ADF81C30BDF82C30ADF802
:1049C0001620ADF80630224605AB01A803A90293D4
:1049D000FDF734FA40F20523BDF80E209A4203D0C9
:1049E00003200349FCF7C8F9049808B010BD00BFC4
:1049F00020E50008034607B5019168461946ADF861
:104A00000220FDF7F7F903B05DF804FB2DE9F3414F
:104A100080460C4617461D4601F01AF9064640B37B
:104A20002146404601F00EF9711E0446284601F069
:104A30003BFBF4B1237A53B1012B15D1E0686946F1
:104A40000022ADF80270019506F09AFF05E0B4F976
:104A50000C0029463A46FFF7CDFF002804DD20462A
:104A600001F004F90446E4E72846002101F02EFB9A
:104A7000F5E7304602B0BDE8F081000010B50368EC
:104A80001C215C69024AA446BDE81040012360472E
:104A90003BED000808B50449102208F083FCB0FA89
:104AA00080F0400908BD00BF49EE000810B50A4972
:104AB0000822044608F076FC48B12378FF2B08D181
:104AC000607800F00F00831E5842584110BD01204D
:104AD00010BD002010BD00BF09EE0008F8B5044667
:104AE00008460F461546FFF7D5FF10B14FF0FF30CF
:104AF000F8BD1DB104F13205032602E004F11205F0
:104B00000226002405EB0410394603F0CEFB08B161
:104B10002046F8BD0134B442F4D1E7E770B54568EA
:104B2000044600F043FE2B6801461E69284604F146
:104B3000A4020823B04710F1860F08D0D4F8A030A3
:104B4000002843F00103C4F8A03007DC70BD94F8DE
:104B5000AC302BB103200349FCF70EF984F8AC000C
:104B600070BD00BF20E5000810B50446FFF79EFFAA
:104B700098B94FF6C06223885BBA23F03F031B0449
:104B80001B0C93420BD02378FF2B0AD1607800F0E6
:104B90000F00052818BF0E2010BD022010BD0520F3
:104BA00010BD0E2010BD000013B5836881B941F21D
:104BB000342200916846B3F9B010ADF80220019399
:104BC000FDF7F6F8002818DC0D4808F039FD14E070
:104BD000022912D11A68184692689047044660B1BB
:104BE000084990F9100040F201222346FFF70EFF1A
:104BF000014610B9204601F069FA02B010BD00BFAD
:104C00003CED00080000FFFF2DE9F84F8A4693466F
:104C100000B119B903201849FCF7AEF80025A846E1
:104C200000F10F0900F112044FF0FF3719F8013FAE
:104C3000DBB1BBF1000F07D09B0616D401239BF814
:104C40000020AB40134210D02046514603F042FBF7
:104C50004028064604D9464507D3B0462F4604E00F
:104C60002046FFF723FF0028F5D010340DB90125A9
:104C7000DCE73846BDE8F88F20E50008F0B50F4CBA
:104C800085B00A9E6768B74215D025682DB9A56022
:104C9000A581E5810B9D25601FB103200849FCF724
:104CA0006BF8084D02930095019408236660FCF7A9
:104CB00003F90028F1DD014805B0F0BD9024002083
:104CC00020E500085D4E000808B5094B28B1984260
:104CD00009D203200749FCF74FF81846064B9842C3
:104CE00003D2036813B9B430F8E7002008BD00BF51
:104CF0009024002020E500084425002010B5002461
:104D00002046FFF7E1FF20B10368002BF9D0013402
:104D1000F7E7204610BD10B504460020FFF7D4FF8A
:104D200018B1B0F9B030A342F8D110BD2DE9F0416F
:104D300080460E4615460AB120B919B103200D4927
:104D4000FCF71AF82F4600242C70B4420ED03846D7
:104D500018F8041006F06EFF731E9C4214BF3A232D
:104D600000233844471C03700134EEE72846BDE8B1
:104D7000F08100BF20E50008F8B519B903202F49DC
:104D8000FBF7FAFF08B90020F8BD0378002BFAD032
:104D9000024615466B780132002BFAD10E460127E8
:104DA000854217D32A7805F1FF3EA2F130045FFA5D
:104DB00084FCBCF1090F1FD9A2F14104052C02D8D3
:104DC000A2F1370418E0A2F16104052C0FD8A2F17A
:104DD000570411E0002FD6D1013EB14205D23278FE
:104DE0000878307001F8012BF6E71846F8BD002F5F
:104DF000C9D101277546D3E7864516D3A5F1020E22
:104E000015F8015CA5F13002D7B2092F0ED9A5F132
:104E10004102052A02D8A5F1370207E0A5F1610297
:104E2000052A02D8A5F1570200E0002244EA021246
:104E30003270013301360027DCE700BF20E50008AF
:104E400020B1036813B1083006F062BD704720B18D
:104E5000036813B1083006F05FBD704740F20523C8
:104E6000F0B50446A9B0002504950595ADF81230BB
:104E7000FFF7E6FF8C4B10211B8808A8A4F8B03080
:104E80006668FDF73DF8894BB4607360336830465F
:104E90009B689847011EC0F2FA803046FFF7EEFD8E
:104EA0006068272103680DF106021F690223B847D5
:104EB00002287FD1BDF80630204684F8AF3000F0DC
:104EC000B3FC2046FFF72AFE01230022ADF8045070
:104ED0008DF805300023CDE9022394F8AF30069514
:104EE000DA1E0795072A65D8DFE802F00425044E8C
:104EF0005D255D04D4F8A020D2075BD594F8AC20E2
:104F0000062A57D1052B09D00A2B0DD0032B55D1DA
:104F100040F2DC53B4F89C209A4203E0B4F89C3091
:104F2000B3F5A06F4AD045E040F2DC53B4F89C20C2
:104F30009A4243D93EE0D4F8A030DF073AD594F83E
:104F4000AC30022B01D0082B34D1B4F89C30B3F52F
:104F5000A06F2FD194F8AD3063B360681821036857
:104F60000DF103021D690123A847863022D094F871
:104F7000AF30042B22D160680321036806AA1D69A3
:104F80000823A84786300CE0D4F8A030DD0711D5FF
:104F900094F8AC30012B0DD14FF6FF73B4F89C2080
:104FA0009A420BD106E0D4F8A030D80702D494F886
:104FB000AC301BB103203E49FBF7DEFED4F8A03035
:104FC000D90720D5204604F1A40194F8AC2002AB07
:104FD00000F066FC8630EDD0D4F8A030DA07E9D5D1
:104FE00094F8AF0001A903F087FB8630E2D0D4F833
:104FF000A030DB07DED594F8AF0002A906AA03F0C3
:105000005FFB8630D6D0402384F8AE302046FEF7D2
:1050100039F823681B680BB1204698472046FFF7F4
:1050200016FF06A8FCF769FF40F20322BDF81A300C
:10503000934216D0B3F5017F09D240F20222934287
:105040001DD1236820465B6807999847E9E70BD094
:1050500041F23422934212D133683046DB689847DC
:10506000DFE723681B6901E02368DB6807992046B6
:10507000984704A9059006A8FCF70EFFD1E723681E
:105080005B69002BCDD0204606A99847C9E709489F
:1050900008F046FA28462560A4F8B05065607560AF
:1050A000B56029B0F0BD00BF28030020A94B00085F
:1050B00020E5000861ED00082DE9F0470D460646A1
:1050C000FFF7BEFE2B782C890B2B40D007D8082B7E
:1050D0006ED0092B1ED0072B40F0908013E0112BCF
:1050E00079D002D80C2B47D088E03F2B02D0402B40
:1050F0007BD083E0012C03D003204749FBF73CFE23
:105100006B681C7082E0012CF6D16B6896F8AE20BB
:105110001A707BE00F2CEFD9D5F8048006F10F0947
:1051200006F1120706F1320A00242B899C426DDA3F
:1051300057456BD019F8013F3BB140463946102224
:1051400008F040F9103408F110081037EDE7002C92
:10515000D2D06A6806F10F0306F1110000242989F4
:105160008C4253DA834251D013F8011F0029F6D044
:1051700002F8011B0134F2E70F2CBDD9D5F80480E9
:1051800006F1320706F1620900242B899C423DDAC0
:105190004F453BD03846FFF77DFC38B9404639468D
:1051A000102208F00FF9103408F110081037ECE75E
:1051B000072CA1D9D6F8A0206B68D2071ED530469F
:1051C00006F1A40196F8AC2000F06AFB10F1860FFE
:1051D00004461BD112E06B88022B0FD1022C8BD11D
:1051E000B6F89C206B681A8010E0012C84D1D6F8A8
:1051F000A0306A68C3F30023137007E07068297851
:1052000003686A681C692B89A04704463046FFF78B
:105210001EFE2046BDE8F08720E500082DE9F04796
:105220000E468AB091461F46054600B119B90320C3
:105230003D49FBF7A1FD0B78FF2BF8D00846FFF79F
:1052400029FC0028F3D130463849102208F0AAF88A
:105250000028ECD009F1FF337F2BE8D82846FFF770
:10526000EFFD07F01F03072B04BF07F0F80747F017
:10527000010705F1120A4FF000084FF0FF345046C5
:10528000314603F012F820B12846FFF7E0FD404612
:1052900047E0621C05D105EB08031B7C002B08BF0F
:1052A00044460AF1100AB8F1000F02D14FF001088C
:1052B000E5E7631C05D12846FFF7C9FD6FF00B0039
:1052C0002FE005EB040805EB041088F8107012308D
:1052D0003146102208F076F898F8103003F01F03DA
:1052E000102B1AD100270297B5F9B00002A903AA22
:1052F00006F054FF38B103A8314602F0EBFF4845F1
:1053000028BF0127F0E747B94FF0FF33B5F9B000E8
:10531000314600934A4606F0A9FE2846FFF797FD5E
:1053200020460AB0BDE8F08720E5000859EE0008E5
:1053300038B50D46044600B119B903200749FBF7FB
:105340001BFDFFF77DFD294600222046FFF7C6FB27
:1053500005462046FFF77BFD284638BD20E50008BE
:105360002DE9F04F8A4685B01646074600B119B9B7
:1053700003205549FBF700FD0021012202A808F097
:105380002CF807F112093846FFF75AFD4D4607F190
:105390000F0B4FF0FF3800241BF8013F9BB15B0758
:1053A00011D15EB99DF808200123A34013438DF865
:1053B0000830B8F1FF3F08BFA04604E02846FFF7D9
:1053C00075FB0028EED110350CB90124E4E7B8F1E3
:1053D000FF3F71D00021022203A807F0FEFF5046D4
:1053E000FFF7C2FB0025AB46019003AC01239DF8FB
:1053F000081003FA0BF30B422CD0484651464E4698
:1054000002F053FF002852D14846FFF7ADFB019B45
:10541000984207D123780433DBB22370AB4288BFB4
:10542000042508E007D223780233DBB29D4238BF5F
:105430001D462370EDB207EB0B031B7C03F01F032B
:10544000082B07D123780133DBB29D4238BF1D46BC
:105450002370EDB2013409F11009BBF1000F02D144
:105460004FF0010BC2E700215A4602A807F0B5FF32
:105470009DF80C303846AB4208BF9DF808305146C5
:1054800004BF43F001038DF808309DF80D3002AAE7
:10549000AB4202BF9DF8083043F002038DF808309C
:1054A000FFF7B2FB002803DB07EB0016123626B924
:1054B00007EB0816123600E000263846FFF7C7FC57
:1054C000304605B0BDE8F08F20E5000838B5054648
:1054D00000242046FFF7F8FB044660B1294600226D
:1054E000FFF7FCFA002806DA204629460122FFF7DA
:1054F000F5FA0028EDDB204638BD2DE9F0410546E0
:105500008846FFF79DFC05F1320700264FF0FF3477
:105510003846414602F0C9FE28B12846FFF797FCFD
:105520003046BDE8F081621C05D13846FFF7B2FA7B
:10553000002818BF34460136032E07F11007E7D1C3
:10554000631C06D12846FFF782FC6FF00B00BDE814
:10555000F08105EB041041461022323007F032FF93
:105560002846FFF774FC2046BDE8F08138B50D46AB
:10557000044600B119B903200B49FBF7FDFBFFF707
:105580005FFC204629460122FFF7A8FA002806DB27
:1055900004EB001032300021102207F01EFF2046DD
:1055A000BDE83840FFF753BC20E500082DE9F04383
:1055B0000E4689B0054600B119B903202849FBF70A
:1055C000DBFB40F2FF220023CDE900234FF0807384
:1055D0000293FF238DF80C304B7B05F112048DF8FC
:1055E0000D30CB8905F11008ADF80E30FFF728FC1F
:1055F00005F1320901272046314602F056FE38B146
:10560000002188F800102046102207F0E6FE17E07F
:1056100040F2FF220023CDE904234FF0807306936C
:10562000FF238DF81C30637B04A88DF81D30E389BF
:105630006946ADF81E3002F038FE002818BF00277A
:1056400010344C4508F10108D5D11FB128466946F0
:10565000FFF78CFF2846FFF7FAFB09B0BDE8F0839F
:1056600020E5000870B50E460546FFF7E9FB3378E4
:1056700034890C2B31D006D8092B1AD00A2B25D00F
:10568000072B6ED10AE0112B37D002D80D2B2DD06D
:1056900067E01A2B4ED0402B39D062E0012C03D0AA
:1056A00003204149FBF768FB73681B7885F8AE302F
:1056B00075E0102CF4D17288284602F0E00371687E
:1056C000120A43F01003FFF7A9FD0CE0102CE7D1FC
:1056D00028467168FFF76AFF61E0102CE0D1284688
:1056E0007168FFF70AFF041E58DA37E0102CD7D193
:1056F00028467168FFF73AFF51E07388022B30D1DA
:10570000022CCDD173681B88A5F89C3047E0012C92
:10571000C6D17368D5F8A0201B78012B09BF42F4CD
:10572000807222F48072C5F8A0201C4618BFC5F80C
:10573000A02034E07268686813781A21012BD5F82C
:10574000A0300CBF43F4803323F48033C5F8A0307D
:1057500003685E692346B047012420E014F1860FF8
:105760001DD168683178036872685C693389A04725
:10577000041E14DD3378022B11D3052B02D9192B0B
:1057800004D00CE02846FFF7C9F908E073681B78DD
:10579000052B04D16868FFF771F900E01024284652
:1057A000FFF755FB204670BD20E5000813B590F8C3
:1057B000AF30043B012B14D84068052103680DF17C
:1057C00006021C690223A047022803D003200649D1
:1057D000FBF7D2FABDF80630082B14BF02200320D5
:1057E00000E0022002B010BD20E5000810B5D0F89E
:1057F000A040E40714D590F8AF40042C0BD1022A46
:1058000009D140680321026814691A46A446BDE81C
:105810001040082360472046BDE8104002F0EEBE6D
:105820006FF0850010BD000037B5044694F8AF3026
:105830004068043B0268062B20D8DFE803F0041F11
:10584000041F041F0A00D4F8A03043F48073C4F886
:10585000A030156911210DF106020223A847022884
:1058600003D003200D49FBF787FA4FF4A063A4F897
:105870009C30BDF8063084F8AD300DE00223156988
:1058800011210DF10602A8470028B4BF4FF6FF739F
:10589000BDF80630A4F89C3003B030BD20E5000808
:1058A00010B5D0F8A040E40705D5BDE8104090F849
:1058B000AF0002F0BFBE6FF0850010BD2DE9F041D2
:1058C0000E4680461746002003F1080232441D466A
:1058D00001464FF0FF3300F013FB00220446F8B1FD
:1058E00043681E705D705A80DA805A711A71B8F17F
:1058F000000F08D03EB140680278B24203D10830B0
:10590000414607F05FFD5FB155B160684378AB4237
:1059100006D103783946083318442A4607F052FD69
:105920002046BDE8F0810000F0B5456891B02B7FBE
:10593000EA8903F02803ADF818200E4611B96FF07C
:10594000150044E091F9102001323ED149680A79EE
:10595000D40654BF43F0010443F0110412F0C00F09
:105960000A7803BF91F801E002F108035B184FF0D9
:10597000020E18BF174B0AB1083103E090F8AC20B3
:1059800000F1A401A87E471CAF76CDF800E0BDF879
:1059900018E00AAF0490ADF804E0ADF808E0039415
:1059A000384602F001FB0028C9D0336809900793FC
:1059B0002B6807A91B6808972846984704460021CA
:1059C000304600F083FB204601E06FF04C0011B040
:1059D000F0BD00BF07EE00082DE9F0474668002142
:1059E000336886B05C6807460A4630460B46A047D7
:1059F0000228044640F3B7800020034601462246B1
:105A000000F07EFA3368054630B95F6830462946B3
:105A100022462B46B847A4E0D3F804C03046696854
:105A2000224601ABE047B0F1000929DDD7F8A020FC
:105A300012F480341DD00020014602460346FFF7D1
:105A40003DFF044610B92846214665E043689DF8AD
:105A500006205A71BDF80420DA80B7F8B0205A80C9
:105A6000002303602B461A680AB11346FBE71C604B
:105A700073E0686802F044FB014608B1814504D236
:105A80002846002100F022FB76E0C0EB09092246FF
:105A9000284600F04FFA804628B92846414600F0D3
:105AA00015FB444669E0446804A96A46204602F0B2
:105AB0009DFB02A982466A46204602F045FBBAF1E8
:105AC000000F014601DA002424E00028FBDB02A8D5
:105AD000C9B204AA5FFA8AF3FFF7F0FE074600286E
